{
  "contractName": "Counter",
  "abi": [
    {
      "anonymous": false,
      "inputs": [
        {
          "indexed": false,
          "internalType": "uint256",
          "name": "oldValue",
          "type": "uint256"
        },
        {
          "indexed": false,
          "internalType": "uint256",
          "name": "newValue",
          "type": "uint256"
        }
      ],
      "name": "ValueChanged",
      "type": "event"
    },
    {
      "constant": false,
      "inputs": [],
      "name": "increment",
      "outputs": [],
      "payable": false,
      "stateMutability": "nonpayable",
      "type": "function"
    },
    {
      "constant": true,
      "inputs": [],
      "name": "getCount",
      "outputs": [
        {
          "internalType": "uint256",
          "name": "",
          "type": "uint256"
        }
      ],
      "payable": false,
      "stateMutability": "view",
      "type": "function"
    }
  ],
  "bytecode": "0x608060405260008055348015601357600080fd5b5060f1806100226000396000f3fe6080604052348015600f57600080fd5b506004361060325760003560e01c8063a87d942c146037578063d09de08a146053575b600080fd5b603d605b565b6040518082815260200191505060405180910390f35b60596064565b005b60008054905090565b600160008082825401925050819055507f2db947ef788961acc438340dbcb4e242f80d026b621b7c98ee30619950390382600160005403600054604051808381526020018281526020019250505060405180910390a156fea265627a7a7231582029a642486e540eae9699956dd285b70d8d51b43c2ebfdfd7836e1622f0378aa564736f6c63430005100032",
  "source": "pragma solidity >=0.5.0 <0.8.0;\r\n\r\ncontract Counter {\r\n\r\n    event ValueChanged(uint oldValue, uint256 newValue);\r\n\r\n    // Private variable of type unsigned int to keep the number of counts\r\n    uint256 private count = 0;\r\n\r\n    // Function that increments our counter\r\n    function increment() public {\r\n        count += 1;\r\n        emit ValueChanged(count - 1, count);\r\n    }\r\n\r\n    // Getter to get the count value\r\n    function getCount() public view returns (uint256) {\r\n        return count;\r\n    }\r\n\r\n}\r\n",
  "sourcePath": "/Users/midmoussi/Documents/recovery-wallet/social-recovery-wallets/soc-rec-wallets/src/contracts/Counter.sol",
  "compiler": {
    "name": "solc",
    "version": "0.5.16+commit.9c3226ce.Emscripten.clang"
  },
  "schemaVersion": "3.3.3",
  "updatedAt": "2021-02-07T22:01:03.222Z",
  "networkType": "ethereum",
  "devdoc": {
    "methods": {}
  },
  "userdoc": {
    "methods": {}
  }
}