{
  "contractName": "Guardianwallet",
  "abi": [
    {
      "constant": false,
      "inputs": [],
      "name": "sendInvitation",
      "outputs": [
        {
          "internalType": "address",
          "name": "",
          "type": "address"
        }
      ],
      "payable": false,
      "stateMutability": "nonpayable",
      "type": "function"
    },
    {
      "constant": false,
      "inputs": [],
      "name": "ackInvitation",
      "outputs": [],
      "payable": false,
      "stateMutability": "nonpayable",
      "type": "function"
    },
    {
      "constant": false,
      "inputs": [
        {
          "internalType": "uint256",
          "name": "_random",
          "type": "uint256"
        }
      ],
      "name": "getListGuardian",
      "outputs": [],
      "payable": false,
      "stateMutability": "nonpayable",
      "type": "function"
    },
    {
      "constant": false,
      "inputs": [
        {
          "internalType": "uint256",
          "name": "_random",
          "type": "uint256"
        }
      ],
      "name": "getGuardian",
      "outputs": [],
      "payable": false,
      "stateMutability": "nonpayable",
      "type": "function"
    },
    {
      "constant": false,
      "inputs": [
        {
          "internalType": "string",
          "name": "_seedphrase",
          "type": "string"
        }
      ],
      "name": "recieveWord",
      "outputs": [
        {
          "internalType": "string",
          "name": "",
          "type": "string"
        }
      ],
      "payable": false,
      "stateMutability": "nonpayable",
      "type": "function"
    },
    {
      "constant": false,
      "inputs": [],
      "name": "getSnippet",
      "outputs": [
        {
          "internalType": "string",
          "name": "",
          "type": "string"
        },
        {
          "internalType": "uint256",
          "name": "",
          "type": "uint256"
        }
      ],
      "payable": false,
      "stateMutability": "nonpayable",
      "type": "function"
    },
    {
      "constant": false,
      "inputs": [
        {
          "internalType": "string",
          "name": "_ack",
          "type": "string"
        }
      ],
      "name": "ackSnippetForGuardian",
      "outputs": [
        {
          "internalType": "bool",
          "name": "",
          "type": "bool"
        }
      ],
      "payable": false,
      "stateMutability": "nonpayable",
      "type": "function"
    },
    {
      "constant": false,
      "inputs": [
        {
          "internalType": "string",
          "name": "_ack",
          "type": "string"
        }
      ],
      "name": "ackSnippetForUser",
      "outputs": [
        {
          "internalType": "bool",
          "name": "",
          "type": "bool"
        }
      ],
      "payable": false,
      "stateMutability": "nonpayable",
      "type": "function"
    },
    {
      "constant": false,
      "inputs": [],
      "name": "storeContactList",
      "outputs": [],
      "payable": false,
      "stateMutability": "nonpayable",
      "type": "function"
    },
    {
      "constant": false,
      "inputs": [],
      "name": "earn",
      "outputs": [],
      "payable": false,
      "stateMutability": "nonpayable",
      "type": "function"
    }
  ],
  "bytecode": "0x608060405234801561001057600080fd5b50610e15806100206000396000f3fe608060405234801561001057600080fd5b506004361061009e5760003560e01c80637b5b40fd116100665780637b5b40fd14610310578063b8a9eacb1461031a578063c503511814610364578063d389800f14610437578063f61cb4fa146104415761009e565b8063131b83b6146100a35780632810d447146100ad57806346e244af146100db5780634cc499d7146101ae578063545c0cfc146101dc575b600080fd5b6100ab6104cb565b005b6100d9600480360360208110156100c357600080fd5b810190808035906020019092919050505061067f565b005b610194600480360360208110156100f157600080fd5b810190808035906020019064010000000081111561010e57600080fd5b82018360208201111561012057600080fd5b8035906020019184600183028401116401000000008311171561014257600080fd5b91908080601f016020809104026020016040519081016040528093929190818152602001838380828437600081840152601f19601f820116905080830192505050505050509192919290505050610793565b604051808215151515815260200191505060405180910390f35b6101da600480360360208110156101c457600080fd5b810190808035906020019092919050505061085c565b005b610295600480360360208110156101f257600080fd5b810190808035906020019064010000000081111561020f57600080fd5b82018360208201111561022157600080fd5b8035906020019184600183028401116401000000008311171561024357600080fd5b91908080601f016020809104026020016040519081016040528093929190818152602001838380828437600081840152601f19601f820116905080830192505050505050509192919290505050610a62565b6040518080602001828103825283818151815260200191508051906020019080838360005b838110156102d55780820151818401526020810190506102ba565b50505050905090810190601f1680156103025780820380516001836020036101000a031916815260200191505b509250505060405180910390f35b610318610aa8565b005b610322610aaa565b604051808273ffffffffffffffffffffffffffffffffffffffff1673ffffffffffffffffffffffffffffffffffffffff16815260200191505060405180910390f35b61041d6004803603602081101561037a57600080fd5b810190808035906020019064010000000081111561039757600080fd5b8201836020820111156103a957600080fd5b803590602001918460018302840111640100000000831117156103cb57600080fd5b91908080601f016020809104026020016040519081016040528093929190818152602001838380828437600081840152601f19601f820116905080830192505050505050509192919290505050610ab2565b604051808215151515815260200191505060405180910390f35b61043f610b4e565b005b610449610b50565b6040518080602001838152602001828103825284818151815260200191508051906020019080838360005b8381101561048f578082015181840152602081019050610474565b50505050905090810190601f1680156104bc5780820380516001836020036101000a031916815260200191505b50935050505060405180910390f35b6000339050600080905060008090505b6001805490508110156105a5578273ffffffffffffffffffffffffffffffffffffffff166001828154811061050c57fe5b906000526020600020906004020160010160009054906101000a900473ffffffffffffffffffffffffffffffffffffffff1673ffffffffffffffffffffffffffffffffffffffff1614801561058a57506001818154811061056957fe5b906000526020600020906004020160030160009054906101000a900460ff16155b1561059857600191506105a5565b80806001019150506104db565b50801561067b5760008090505b600180549050811015610679573373ffffffffffffffffffffffffffffffffffffffff16600182815481106105e357fe5b906000526020600020906004020160010160009054906101000a900473ffffffffffffffffffffffffffffffffffffffff1673ffffffffffffffffffffffffffffffffffffffff16141561066c57600180828154811061063f57fe5b906000526020600020906004020160030160006101000a81548160ff021916908315150217905550610679565b80806001019150506105b2565b505b5050565b60026001828154811061068e57fe5b906000526020600020906004020190806001815401808255809150509060018203906000526020600020906004020160009091929091909150600082015481600001556001820160009054906101000a900473ffffffffffffffffffffffffffffffffffffffff168160010160006101000a81548173ffffffffffffffffffffffffffffffffffffffff021916908373ffffffffffffffffffffffffffffffffffffffff1602179055506002820181600201908054600181600116156101000203166002900461075f929190610cb4565b506003820160009054906101000a900460ff168160030160006101000a81548160ff02191690831515021790555050505050565b600080600090505b60028054905081101561085557600281815481106107b557fe5b906000526020600020906004020160010160009054906101000a900473ffffffffffffffffffffffffffffffffffffffff1673ffffffffffffffffffffffffffffffffffffffff163373ffffffffffffffffffffffffffffffffffffffff16141561084857606083805190602001208180519060200120141561083d57600192505050610857565b600092505050610857565b808060010191505061079b565b505b919050565b6000809050600160028054905011156109465760008090505b600280549050811015610944576001838154811061088f57fe5b906000526020600020906004020160010160009054906101000a900473ffffffffffffffffffffffffffffffffffffffff1673ffffffffffffffffffffffffffffffffffffffff16600282815481106108e457fe5b906000526020600020906004020160010160009054906101000a900473ffffffffffffffffffffffffffffffffffffffff1673ffffffffffffffffffffffffffffffffffffffff16141561093757610944565b8080600101915050610875565b505b8015610a5e5760026001838154811061095b57fe5b906000526020600020906004020190806001815401808255809150509060018203906000526020600020906004020160009091929091909150600082015481600001556001820160009054906101000a900473ffffffffffffffffffffffffffffffffffffffff168160010160006101000a81548173ffffffffffffffffffffffffffffffffffffffff021916908373ffffffffffffffffffffffffffffffffffffffff16021790555060028201816002019080546001816001161561010002031660029004610a2c929190610cb4565b506003820160009054906101000a900460ff168160030160006101000a81548160ff0219169083151502179055505050505b5050565b60606000829080600181540180825580915050906001820390600052602060002001600090919290919091509080519060200190610aa1929190610d3b565b5050919050565b565b600033905090565b6000600360009054906101000a900473ffffffffffffffffffffffffffffffffffffffff1673ffffffffffffffffffffffffffffffffffffffff163373ffffffffffffffffffffffffffffffffffffffff161415610b48576060604051806020016040528060008152509050828051906020012081805190602001201415610b3e576001915050610b49565b6000915050610b49565b5b919050565b565b6060600080600090505b600280549050811015610cae57600081606401905060028281548110610b7c57fe5b906000526020600020906004020160010160009054906101000a900473ffffffffffffffffffffffffffffffffffffffff1673ffffffffffffffffffffffffffffffffffffffff163373ffffffffffffffffffffffffffffffffffffffff161415610ca05760008281548110610bee57fe5b9060005260206000200181818054600181600116156101000203166002900480601f016020809104026020016040519081016040528092919081815260200182805460018160011615610100020316600290048015610c8e5780601f10610c6357610100808354040283529160200191610c8e565b820191906000526020600020905b815481529060010190602001808311610c7157829003601f168201915b50505050509150935093505050610cb0565b508080600101915050610b5a565b505b9091565b828054600181600116156101000203166002900490600052602060002090601f016020900481019282601f10610ced5780548555610d2a565b82800160010185558215610d2a57600052602060002091601f016020900482015b82811115610d29578254825591600101919060010190610d0e565b5b509050610d379190610dbb565b5090565b828054600181600116156101000203166002900490600052602060002090601f016020900481019282601f10610d7c57805160ff1916838001178555610daa565b82800160010185558215610daa579182015b82811115610da9578251825591602001919060010190610d8e565b5b509050610db79190610dbb565b5090565b610ddd91905b80821115610dd9576000816000905550600101610dc1565b5090565b9056fea265627a7a72315820234b632b2f3e45c4808d91aef642a150dfb6dfb7eba56c40b83578e0511ef32e64736f6c63430005100032",
  "source": "pragma solidity >=0.5.0 <0.8.0;\n// pragma experimental ABIEncoderV2;\n\n\n// import \"@openzeppelin/contracts/token/ERC20/IERC20.sol\";\n\n/// @title Social Recovery Wallet Smart Contract \n/// @author Mohammed El Amine Idmoussi / Yuling Ma \n\n\n// in save -\n// send invitation to all guardians\n// get ack\n// choose random guardians\n// send guardian list to user per request\n// generate alias for stored seedpharse - match guardian's seedphrase with alias when requested later\n\n// assign tokens to guardians\n// =========================\n// getGuardianFee\n// ================\n\n// in recovery -\n// send recovery request to guardians\n// get ack\n// forward encrypted master key from user to guardians\n\ncontract Guardianwallet{\n\n    struct Guardian {\n        uint sequence;\n        address guardianAddress;\n        string publicKey;\n        bool ack;\n    }\n\n    string[] seedphrase; // seedphrase encrypted\n\n    Guardian[] guardians; // potential guardians \n\n    Guardian[] randomGuardians; // chosen guardians\n\n    address userAddress;\n\n    function sendInvitation() public returns (address){\n        return msg.sender;\n    }\n\n    function ackInvitation() public isUnAckGuardian{\n        for (uint i=0; i<guardians.length; i++){\n            if (guardians[i].guardianAddress == msg.sender){\n                guardians[i].ack = true;\n                break;\n            }\n        }\n    }\n\n    function getListGuardian(uint _random) public {\n        randomGuardians.push(guardians[_random]);\n    }\n\n    function getGuardian(uint _random) public {  //se Guardian\n        bool isRandom = false;\n        if (randomGuardians.length > 1) {\n            for (uint i=0; i<randomGuardians.length; i++){\n                if (randomGuardians[i].guardianAddress == guardians[_random].guardianAddress){\n                    break;\n                } \n            }\n        }\n        if (isRandom){\n            randomGuardians.push(guardians[_random]);\n        }\n    }\n\n    // chainlink \n    // function choseGuardian(uint randomGuardianid) public returns (uint){\n        // return (randomguardianid);\n    // }\n\n    // sending the Guardian info to the user \n    // function sendGuardian() public returns (Guardian[] memory){\n    //     return randomGuardians; // sequence GuardianId,publicKey\n    // }\n\n    // recieve seedphrase from user\n    function recieveWord(string memory _seedphrase) public returns (string memory) {\n        seedphrase.push(_seedphrase); //monemic phrase\n    }\n\n    // send word to Guardian  ??????????\n    function getSnippet() public returns (string memory, uint){\n       for(uint i=0; i<randomGuardians.length; i++){\n           uint ack1 = 100 + i;\n           if (msg.sender == randomGuardians[i].guardianAddress){\n               return (seedphrase[i], ack1);               \n           }\n       }\n    }\n\n    function ackSnippetForGuardian(string memory _ack) public returns (bool){\n        for(uint i=0; i<randomGuardians.length; i++){\n           if (msg.sender == randomGuardians[i].guardianAddress){\n               //decrypt _ack with randomGuardians i's public key\n               //hash ack1\n               //compare ack1 with _ack\n               //if match then true, else false\n               string memory messageHash;//= web3.sha3(ack1);\n               if (keccak256(bytes(messageHash)) == keccak256(bytes(_ack))){\n                   return true;\n               }else{\n                   return false;\n               }\n\n           }\n       }\n    }\n\n    function ackSnippetForUser(string memory _ack) public returns (bool){\n        \n           if (msg.sender == userAddress){\n               //decrypt _ack with randomGuardians i's public key\n               //hash ack1\n               //compare ack1 with _ack\n               //if match then true, else false\n               string memory messageHash =\"\";// = web3.sha3(ack1);\n               if (keccak256(bytes(messageHash)) == keccak256(bytes(_ack))){\n                   return true;\n               }else{\n                   return false;\n               }\n\n           }\n       \n    }\n\n    modifier isGuardian(){\n        address caller = msg.sender;\n        bool _isGuardian = false;\n        for (uint i=0; i<guardians.length; i++){\n            if (guardians[i].guardianAddress == caller){\n                _isGuardian = true;\n                break;\n            }             \n        }\n        if (_isGuardian){\n        _;\n        }\n    }\n\n    modifier isUnAckGuardian(){\n        address caller = msg.sender;\n        bool _unAck = false;\n        for (uint i=0; i<guardians.length; i++){\n            if (guardians[i].guardianAddress == caller && !guardians[i].ack){                \n                _unAck = true; \n                break;               \n            }\n        }\n        if (_unAck){\n            _;\n        }\n        \n    }\n\n    // store contact list to ipfs\n    function storeContactList( ) public{\n        // reauest master password from user\n        // store it to ipfs\n    }\n    \n    // send fees to aave and issue a stake token\n    function earn() public{\n        // earn interest from aave\n    }\n\n    //receive(encrypted seedphrase) push the encrypted word into the  smart contract\n    //getLis guardians(adresse , order) return the person adress to the user ? what is order? read from IPFS?\n    //chos Guardian(number,adresses) chainlink to chose a random Guardian\n    //sendSeedPhrase() send encrypted seedphrase to Guardian\n    //storeContactList(adresse , order, randomMasterkey) store the Guardian contact list on ipfs ? what is order\n    // encrypt(pubkey,word) general function   ?\n    // earn GuardianAdress,amount) send money to aave to earn interest\n    //\n\n}",
  "sourcePath": "/Users/midmoussi/Documents/recovery-wallet/social-recovery-wallets/soc-rec-wallets/src/contracts/Guardianwallet.sol",
  "compiler": {
    "name": "solc",
    "version": "0.5.16+commit.9c3226ce.Emscripten.clang"
  },
  "schemaVersion": "3.3.3",
  "updatedAt": "2021-02-07T22:01:02.977Z",
  "networkType": "ethereum",
  "devdoc": {
    "author": "Mohammed El Amine Idmoussi / Yuling Ma ",
    "methods": {},
    "title": "Social Recovery Wallet Smart Contract "
  },
  "userdoc": {
    "methods": {}
  }
}