{
  "contractName": "Test",
  "abi": [
    {
      "inputs": [],
      "payable": false,
      "stateMutability": "nonpayable",
      "type": "constructor"
    },
    {
      "payable": true,
      "stateMutability": "payable",
      "type": "fallback"
    },
    {
      "constant": false,
      "inputs": [],
      "name": "increase",
      "outputs": [
        {
          "internalType": "uint256",
          "name": "",
          "type": "uint256"
        }
      ],
      "payable": false,
      "stateMutability": "nonpayable",
      "type": "function"
    },
    {
      "constant": false,
      "inputs": [],
      "name": "decrease",
      "outputs": [
        {
          "internalType": "uint256",
          "name": "",
          "type": "uint256"
        }
      ],
      "payable": false,
      "stateMutability": "nonpayable",
      "type": "function"
    },
    {
      "constant": true,
      "inputs": [],
      "name": "getCount",
      "outputs": [
        {
          "internalType": "uint256",
          "name": "",
          "type": "uint256"
        }
      ],
      "payable": false,
      "stateMutability": "view",
      "type": "function"
    },
    {
      "constant": false,
      "inputs": [
        {
          "internalType": "uint256",
          "name": "_count",
          "type": "uint256"
        }
      ],
      "name": "setCount",
      "outputs": [
        {
          "internalType": "uint256",
          "name": "",
          "type": "uint256"
        }
      ],
      "payable": false,
      "stateMutability": "nonpayable",
      "type": "function"
    }
  ],
  "bytecode": "0x608060405234801561001057600080fd5b5033600160006101000a81548173ffffffffffffffffffffffffffffffffffffffff021916908373ffffffffffffffffffffffffffffffffffffffff160217905550610193806100616000396000f3fe60806040526004361061003f5760003560e01c8063a87d942c14610041578063d14e62b81461006c578063d732d955146100bb578063e8927fbc146100e6575b005b34801561004d57600080fd5b50610056610111565b6040518082815260200191505060405180910390f35b34801561007857600080fd5b506100a56004803603602081101561008f57600080fd5b810190808035906020019092919050505061011a565b6040518082815260200191505060405180910390f35b3480156100c757600080fd5b506100d0610128565b6040518082815260200191505060405180910390f35b3480156100f257600080fd5b506100fb610144565b6040518082815260200191505060405180910390f35b60008054905090565b600081600081905550919050565b6000806000815480929190600190039190505550600054905090565b60006001600080828254019250508190555060005490509056fea265627a7a72315820c3dd02a9ad26df744109c894a68df328f8b66d07264df1a627e3ca01a016c1f264736f6c63430005100032",
  "source": "pragma solidity >=0.5.0 <0.8.0;\r\n\r\ncontract Test{\r\n    uint private count;\r\n    address private owner;\r\n    // address public constant approver = 0x94C9081c3Fc6DDF2F25426af516F9af82fA0F4ae;\r\n    \r\n\r\n    // events\r\n    // event Increment();\r\n\r\n\r\n    constructor() public{\r\n        owner = msg.sender;\r\n        \r\n    }\r\n\r\n    function increase() public returns (uint){\r\n        count +=1;\r\n        return count;\r\n        // emit Increment();\r\n\r\n    }\r\n\r\n    function decrease() public returns (uint){\r\n        count--;\r\n        return count; \r\n    }\r\n\r\n    function getCount() public view returns (uint){\r\n        return count;\r\n    }\r\n\r\n    function setCount(uint _count) public returns(uint){\r\n        count = _count;\r\n    }\r\n\r\n    //receive(encrypted seedphrase) push the encrypted word into the  smart contract\r\n    //choseHolder(number,adresses) chainlink to chose a random holder\r\n    //sendSeedPhrase() send encrypted seedphrase to holder\r\n    //getListHolders(adresse , order) return the person adress to the user\r\n    //storeContactList(adresse , order, randomMasterkey) store the holder contact list on ipfs\r\n    // encrypt(pubkey,word) general function\r\n    // earn(holderAdress,amount) send money to aave to earn interest\r\n    // \r\n\r\n    function() payable external{}\r\n}",
  "sourcePath": "/Users/midmoussi/Documents/recovery-wallet/social-recovery-wallets/soc-rec-wallets/src/contracts/Test.sol",
  "compiler": {
    "name": "solc",
    "version": "0.5.16+commit.9c3226ce.Emscripten.clang"
  },
  "schemaVersion": "3.3.3",
  "updatedAt": "2021-02-07T19:22:16.167Z",
  "networkType": "ethereum",
  "devdoc": {
    "methods": {}
  },
  "userdoc": {
    "methods": {}
  }
}