{
  "contractName": "Verifier",
  "abi": [
    {
      "constant": false,
      "inputs": [
        {
          "internalType": "address",
          "name": "owner",
          "type": "address"
        },
        {
          "internalType": "uint256",
          "name": "amount",
          "type": "uint256"
        },
        {
          "internalType": "uint256",
          "name": "nonce",
          "type": "uint256"
        },
        {
          "internalType": "bytes",
          "name": "signature",
          "type": "bytes"
        }
      ],
      "name": "submitOrder",
      "outputs": [],
      "payable": false,
      "stateMutability": "nonpayable",
      "type": "function"
    }
  ],
  "bytecode": "0x608060405234801561001057600080fd5b5061042c806100206000396000f3fe608060405234801561001057600080fd5b506004361061002b5760003560e01c80636f4da89814610030575b600080fd5b61011d6004803603608081101561004657600080fd5b81019080803573ffffffffffffffffffffffffffffffffffffffff16906020019092919080359060200190929190803590602001909291908035906020019064010000000081111561009757600080fd5b8201836020820111156100a957600080fd5b803590602001918460018302840111640100000000831117156100cb57600080fd5b91908080601f016020809104026020016040519081016040528093929190818152602001838380828437600081840152601f19601f82011690508083019250505050505050919291929050505061011f565b005b6000848484604051602001808473ffffffffffffffffffffffffffffffffffffffff1673ffffffffffffffffffffffffffffffffffffffff1660601b815260140183815260200182815260200193505050506040516020818303038152906040528051906020012090506000610194826102bd565b905060006101ab848361031590919063ffffffff16565b90508673ffffffffffffffffffffffffffffffffffffffff168173ffffffffffffffffffffffffffffffffffffffff16146101e557600080fd5b6000808273ffffffffffffffffffffffffffffffffffffffff1673ffffffffffffffffffffffffffffffffffffffff168152602001908152602001600020600086815260200190815260200160002060009054906101000a900460ff161561024c57600080fd5b60016000808373ffffffffffffffffffffffffffffffffffffffff1673ffffffffffffffffffffffffffffffffffffffff168152602001908152602001600020600087815260200190815260200160002060006101000a81548160ff02191690831515021790555050505050505050565b60008160405160200180807f19457468657265756d205369676e6564204d6573736167653a0a333200000000815250601c01828152602001915050604051602081830303815290604052805190602001209050919050565b600080600080604185511461033057600093505050506103f1565b6020850151925060408501519150606085015160001a9050601b8160ff16101561035b57601b810190505b601b8160ff16141580156103735750601c8160ff1614155b1561038457600093505050506103f1565b60018682858560405160008152602001604052604051808581526020018460ff1660ff1681526020018381526020018281526020019450505050506020604051602081039080840390855afa1580156103e1573d6000803e3d6000fd5b5050506020604051035193505050505b9291505056fea265627a7a72315820f636edd8f54b535468c1a641ff62dc645ee56c30eddcd10c5553f1a79e599d2364736f6c63430005100032",
  "source": "\r\nimport \"./ECDSA.sol\";\r\npragma solidity >=0.5.0 <0.8.0;\r\n\r\ncontract Verifier{\r\n    using ECDSA for bytes32;\r\n\r\n    mapping(address => mapping(uint256 => bool)) seenNonces;\r\n\r\n    function submitOrder(address owner, uint256 amount, uint256 nonce, bytes memory signature) public {\r\n    // This recreates the message hash that was signed on the client.\r\n    bytes32 hash = keccak256(abi.encodePacked(owner, amount, nonce));\r\n    bytes32 messageHash = hash.toEthSignedMessageHash();\r\n\r\n    // Verify that the message's signer is the owner of the order\r\n    address signer = messageHash.recover(signature);\r\n    require(signer == owner);\r\n\r\n    require(!seenNonces[signer][nonce]);\r\n    seenNonces[signer][nonce] = true;\r\n\r\n    //... process order\r\n    }\r\n}",
  "sourcePath": "/Users/midmoussi/Documents/recovery-wallet/social-recovery-wallets/soc-rec-wallets/src/contracts/Verifier.sol",
  "compiler": {
    "name": "solc",
    "version": "0.5.16+commit.9c3226ce.Emscripten.clang"
  },
  "schemaVersion": "3.3.3",
  "updatedAt": "2021-02-07T19:22:10.202Z",
  "devdoc": {
    "methods": {}
  },
  "userdoc": {
    "methods": {}
  }
}